:100000000C947F020C949C020C949C020C949C0215
:100010000C949C020C949C020C949C020C949C02E8
:100020000C949C020C949C020C943D340C94153559
:100030000C94F2330C949C020C949C020C949C0241
:100040000C949C020C949C020C949C020C949C02B8
:100050000C949C020C9419340C949C020C949C02F9
:100060000C949C020C949C020C949C020C949C0298
:100070000C949C020C949C020C949C020C949C0288
:100080000C949C020C949C020C949C020C949C0278
:100090000C949C020C949C020C949C020C949C0268
:1000A0000C949C020C949C020C949C020501090285
:1000B000A10185020901A1000509190129081500FE
:1000C0002501950875018102050109300931158165
:1000D000257F95027508810609381581257F9501D0
:1000E00075088106050C0A38021581257F95017572
:1000F000088106C0C005010980A101850319012AF4
:10010000B700150126B700950175108100C0050CD8
:100110000901A101850419012AA002150126A002E6
:10012000950175108100C005010906A1018506052C
:100130000719E029E71500250195087501810205D9
:1001400007190029EF1500250195F07501810205B9
:10015000081901290595057501910295017503910D
:1001600001C00660FF0961A1010962150026FF00B8
:100170009520750881020963150026FF00952075FA
:10018000089102C005010906A101050719E029E748
:1001900015002501950875018102950175088101F9
:1001A0000507190029FF150026FF0095067508812F
:1001B000000508190129051500250195057501910E
:1001C00002950175039101C00000000000000000CD
:1001D000000000000000000000000000000000001F
:1001E0000000000000000000000000007E0F00D4AE
:1001F000FFFFFFC7000000780000000000000000C3
:100200002A2B280000000000000000000000000071
:1002100000000029000000002C1E3420212224347C
:100220002627252E362D3738271E1F20212223244E
:1002300025263333362E37381F0405060708090AEA
:100240000B0C0D0E0F101112131415161718191A86
:100250001B1C1D2F3130232D350405060708090A04
:100260000B0C0D0E0F101112131415161718191A66
:100270001B1C1D2F3130354C09025B00030100A00F
:10028000FA09040000010301010009211101000124
:10029000224400070581030800010904010002034C
:1002A000000000092111010001222200070582033C
:1002B00020000107050303200001090402000103D7
:1002C00000000009211101000122B6000705840386
:1002D0002000011201000200000008EDFE000000F5
:1002E00001010203011C037600690061006C003A01
:1002F00000660036003400630032006200330063A1
:10030000000000140361006E006900720069006A59
:10031000005F007600310000001A0341006E0069A2
:1003200000730068002000530069006E0067006CD5
:1003300000610000000403090414001A00080015FD
:100340000004001600070009001D001B000600192C
:1003500000DA00D900A900AA00010001001305314C
:100360001847180000020002000F05311847180056
:1003700000030001001405311847180000040002B2
:1003800000F904311847184A060500010015053127
:10039000184718000006000200FB04311847180037
:1003A000000700020011053118471800000800017D
:1003B00000160531184718000009000200FD04313D
:1003C00018471853060A000200FF04311847185353
:1003D000060B00020001053118471853060C0002F5
:1003E0000003053118471853060D000200050531BA
:1003F00018471853060E0002000705311847185316
:10040000060F0002000905311847185306100002B4
:10041000000B05311847185306110002000D053175
:100420001847185306120002001705311847180024
:1004300000130002001905311847180000140001CC
:10044000001B053118471800001500000000007857
:1004500006D8100000FD377A585A000004E6D6B4DA
:10046000460200210116000000742FE5A3E000E819
:1004700000685D003D8889A654750A36E182AEFAAF
:100480007A1AA6FCA2ED494DBDA65E7177BBD05A83
:100490000B886FB1011EC6A25743CE299E83C74267
:1004A000F0397B06D77A33A278EA324D41F25A818D
:1004B00022AEB6CBBBCBF3C6084DC7675DA8BC1E4A
:1004C00093E9107BCBC4C1E60428934798B9576AD7
:1004D00083271487B9967B4820ED1C0000152960FE
:1004E0008B7971F43B00018401E901000026CFA162
:1004F000D1B1C467FB020000000004595A00112466
:100500001FBECFEFDAE0DEBFCDBF11E0A0E0B1E06B
:10051000EAEAFDE602C005900D92A238B107D9F7CC
:1005200025E0A2E8B1E001C01D92A132B207E1F7D7
:100530000E94F92A0C945A360C9400009C019A955A
:1005400081159F4118F5F901EE27F270832F817014
:10055000B90166277470A9014427587034FF0CC094
:100560008295807FEF2B09F08062672B09F0806411
:10057000452B69F080680895EF2B09F08260672BA6
:1005800009F08460452B19F08860089580E0089593
:10059000CF93DF93EB010E949E02FE010995DF914C
:1005A000CF910895282F92959F70963091F060F426
:1005B000925F9F70923030F481E0203F79F030F408
:1005C000283E30F080E008959A5FF3CF243FD1F7C2
:1005D000089581E0283EE0F3213FF9CF089580930C
:1005E000F70408958093F804089521E030E001C0F5
:1005F000220F8A95EAF78091F804822B0E94F2027A
:10060000089521E030E0A90102C0440F551F8A95EA
:10061000E2F7CA0180959091F80489230E94F202C2
:1006200008959B01677091E001C0990F6A95EAF700
:1006300063E0369527956A95E1F7B901660F771F54
:10064000260F371FFA01E20FF31F40E050E0682F3A
:1006500070E08191DF0111979B01042E02C0369555
:1006600027950A94E2F72170219528272923282726
:100670002C934F5F5F4F4330510559F708959C010C
:10068000A82FA77083E0369527958A95E1F7C901D1
:10069000880F991F820F931FFB01E80FF91F40E09D
:1006A00050E080E0219130E00A2E02C03695279577
:1006B0000A94E2F721703327042E01C0220F0A9416
:1006C000EAF7822B4F5F5F4F4330510559F708958A
:1006D000282F862F903F71F0933068F4243050F427
:1006E00034E0939FB0011124620F711D46E853E07E
:1006F0000E94110308959C5F9230E0F7622F70E032
:1007000043E853E0F5CF282F903FB1F0933068F4E1
:10071000843090F434E0939FC001112466E873E0C4
:10072000820F911D0E943F0308959C5F923020F438
:1007300063E873E090E0F6CF80E008959091F804CC
:1007400021E030E0F90101C0EE0F8A95EAF7D90106
:1007500002C0AA0FBB1F6A95E2F7EA2B01C0220F65
:100760004A95EAF7892F8E23E81305C0892F822B3B
:100770000E94F20208952095822F8923F9CF80915B
:10078000310390913003981301C008958F5F8770F3
:10079000FACF909145048095892380934504282FB2
:1007A0002770211111C0891779F090911E0592FFD1
:1007B0000BC08695869586950E940103109245048C
:1007C0001092470410924604089590914204982B89
:1007D000909342040895982F909580914204892324
:1007E00080934204089580914104882331F010924F
:1007F00041041092400410923F040895803E9105F8
:10080000D1F1C8F48133910509F47FC048F48932ED
:10081000910509F46FC08A32910509F47DC00895ED
:1008200089339105E1F082389105C9F0853391054E
:1008300009F45BC00895843E9105D1F148F4823EED
:10084000910531F1833E910541F181EE90E00895EB
:10085000863E9105C1F1873E9105E1F10895209111
:100860001D052370211165C020911E0523FF14C0B2
:1008700089E290E0089520911D0520FD43C030914C
:100880001E0530FF09C024FF4EC080E090E00895AF
:1008900020911D0522FDF7CF089520911D0522FD11
:1008A00045C030911E0530FD44C024FFF5CFEDCF8B
:1008B00020911E0521FFF0CF80911D0584FDE5CF1D
:1008C00087EE90E0089520911D0523FFE5CF24FDDC
:1008D000DCCFF6CF20911D0523FD2EC030911E05E3
:1008E00031FFE3CF84EE90E0089520911D0525FFB0
:1008F000D3CFBECF20911D0525FD21C020911E051F
:1009000023FFCACF89E390E0089520911D0526FFBB
:10091000C3CF8AE290E0089520911D0526FFBCCF49
:1009200081E390E0089583EE90E0089582EE90E0F8
:10093000089580EE90E0089586EE90E0089585E3B6
:1009400090E0AACF90911D0592FF10C041E0282FA2
:100950002471243009F040E031E0282F287128303C
:1009600009F030E0431711F02CE0822793FF10C00C
:1009700041E0282F2471243109F040E031E0282F94
:100980002871283109F030E0431711F02CE082275C
:1009900030911E0530FF10C051E0282F2171213009
:1009A00009F050E041E0282F2871283009F040E09C
:1009B000541711F029E0822731FF10C041E0282FA1
:1009C0002171213109F040E031E0282F28712831D0
:1009D00009F030E0431711F029E0822794FD877E6B
:1009E00008951F93CF93DF930E94FE03EC018115BE
:1009F00022E5920708F053C0811540E5940708F0FE
:100A0000DDC0803E9105F8F48D3C910508F0AEC044
:100A1000883A910580F4853A910508F099C08130B3
:100A2000910521F00497813A910550F4CE01DF91B0
:100A3000CF911F910895885A91094B9708F48BC064
:100A4000C0E0D0E0F3CF811550E49507F8F4C1156C
:100A500080E2D80708F0CBC0C83ED10538F3CE01FC
:100A60009A9581159F4160F78D2F0E94A204182F3F
:100A7000CE0199270E94FE03212F30E0322F22273A
:100A8000E901CC27DF71C82BD92BD0CF99270E9441
:100A9000FE03CC27DF70C82BD92BD06AC7CF803894
:100AA00042E59407C8F5803652E5950708F067C01F
:100AB000C03482E5D807B0F08C2F86958695877074
:100AC00020E2829FC0011124C37021E030E0A9011F
:100AD00002C0440F551FCA95E2F7EA01C82BD92B73
:100AE000DC68A4CFC03252E5D50708F041C08C2F96
:100AF0008695869520E2829FC0011124C37021E073
:100B000030E0A90102C0440F551FCA95E2F7EA017F
:100B1000C82BD92BDD688ACF803C52E5950760F45D
:100B20008F71C03AD24508F03FC090E0982F8827D7
:100B3000EC01C46FD06A7ACF805C9245809708F050
:100B40007FCFDC2FCC27CC27DF71C06FD06A6ECF70
:100B5000A497D0646BCFC85AD0E0CC0FDD1FC55B23
:100B6000DE4F0990D881C02DD46460CFD0655ECFB0
:100B7000CF71D0E0DC2FCC27C16FD06A57CF8695DC
:100B80008695877020E2829FC0011124C37021E006
:100B900030E0A90102C0440F551FCA95E2F7EA01EF
:100BA000C82BD92BDA6842CF0E94A204C82FD0E00C
:100BB000DC2FCC27CC27DF71D06238CF8F710E9419
:100BC000A20465E0D695C7956A95E1F7CF70D0E0AD
:100BD000DC2FCC27282F30E084FF05C054E0220F03
:100BE000331F5A95E1F7C22BD32BD0691FCF8D2F1E
:100BF0008F710E94A204182FCE0199270E94FE0334
:100C0000212F30E0322F222722273F71282B392B2A
:100C1000E901D2CF80E00895F894E82FE295EF70D3
:100C2000F0E041A18F7021E030E0B90102C0660F11
:100C3000771F8A95E2F7CB01962F9095942391A385
:100C400092A1892B82A37894089581152CE79207AD
:100C500041F42091FD023091FE02232B11F480E03B
:100C600090E00895E0EBF3E080E090E069E07AE264
:100C700040E35AE225EA3AE2778366835187408768
:100C800033872287978786870196709688309105EB
:100C900099F708958091F9049091FA0490930F01C7
:100CA00080930E010895E9EFF4E0848195812AE0B4
:100CB00030E0B9010E945E35609312018681809315
:100CC00013018285809303018485809302018685C8
:100CD0009785B9010E945E356093100180898093E9
:100CE0001101828980930101848980930001089514
:100CF000A0E0B0E0EEE7F6E00C949935FB018FEF51
:100D00009FEF4430510508F465C040911D0541FB3B
:100D1000882780F990E0880F991F42FBAA24A0F849
:100D2000B12CAA0CBB1CAA0CBB1C8A299B2940FB1A
:100D3000882480F8912C8829992943FBCC24C0F879
:100D4000D12C53E0CC0CDD1C5A95E1F78C299D2960
:100D500044FBEE24E0F8F12C64E0EE0CFF1C6A95F5
:100D6000E1F78E299F2945FB002700F910E075E087
:100D7000000F111F7A95E1F7802B912B46FB22275C
:100D800020F9C22F20E0D22FA6E0CC0FDD1FAA95BC
:100D9000E1F78C2B9D2B47FB442740F920E8429F2D
:100DA000A0011124842B952B20911E05322F317028
:100DB000932B26952170B22FBB0FA0E08A2B9B2B83
:100DC000092E000CAA0BBB0B80839183A283B383F3
:100DD00080E090E0CDB7DEB7ECE00C94B53590E064
:100DE0006623E9F08E5C9E4FFC0180818F3FB1F05D
:100DF000E82FE295EF70F0E041A18F7021E030E044
:100E0000B90102C0660F771F8A95E2F7CB01962FD2
:100E10009095942391A392A1892B82A30895805D3C
:100E20009E4FE2CF90E06623A9F08E5C9E4FFC01BE
:100E300020812F3F91F0E22FE295EF70E05EF0E02D
:100E4000808190E02F7002C0959587952A95E2F7F2
:100E500081700895805D9E4FEACF80E00895AC01D7
:100E600023E0969587952A95E1F78E719927FC01E5
:100E7000E553FE4F0190F081E02D4F70552721E0A2
:100E800030E002C0220F331F4A95E2F7662341F09B
:100E9000E22BF32B85539E4FDC01ED93FC930895D9
:100EA00020953095E223F323F5CF10928904109218
:100EB0008804E8E4F4E08581811102C0148216827E
:100EC000379684E0E038F807B1F70895AC01309127
:100ED0008B0460918A04232F621301C00895822F2E
:100EE00090E0FC01EE0FFF1FE058FB4F0190F081F6
:100EF000E02DE417F50791F467E0649FF001659F2A
:100F0000F00D1124E85BFB4F41E044832313E6CF4F
:100F100001968370992780938B0408950196282F5A
:100F20002370DACFFC018481862381110AC082817B
:100F30008823B9F06823908593FF05C081E0611193
:100F40000FC080E00895282F22952F708F70282BD6
:100F5000962F92959F706F70962B81E02913F1CF99
:100F6000089581E0FDCF282F35EB2303C001112424
:100F700097FF04C080589109892F089580589F4F8A
:100F8000FBCF80918E03609101057091020580FF77
:100F900016C020910301269FC001279F900D1124A8
:100FA000BC0176956795769567956038710508F070
:100FB00044C06115710509F442C0862F089581FF70
:100FC0000BC020910301269FC001279F900D112483
:100FD000BC0176956795E9CF82FF09C08091030136
:100FE0009B01829FB001839F700D1124DECF809101
:100FF0008D038823D1F2909102012091030130E00A
:10100000891748F0CB01829FB001839F700D929F9A
:10101000700D1124CACF829FA001839F500D11240F
:10102000469F9001479F300D569F300D1124692F28
:1010300070E0C9010E945E35B8CF8FE7089581E066
:10104000089580918E0380FF0CC06091010170E0D3
:1010500075956795759567956115710561F1862F91
:10106000089581FF06C06091010170E07595679554
:10107000F3CF6091010170E082FD15C020918C03D7
:101080002223B1F0909100016091010170E02917D5
:1010900050F4269FA001279F500D1124692F70E066
:1010A000CA010E94723560387105B0F28FE7089569
:1010B00061E070E0D4CF81E00895FA01309709F043
:1010C00009950895E0912603F0912703309729F0C0
:1010D0000190F081E02D0995089580E00895A3E046
:1010E000B0E0E5E7F8E00C94A3359C018091C801DD
:1010F0009091C90182179307A1F03093C901209301
:10110000C801E0912603F0912703309751F083E066
:1011100089833B832A830084F185E02DCE010196EB
:1011200009952396E2E00C94BF35A3E0B0E0EBE92B
:10113000F8E00C94A3359C018091C6019091C70101
:1011400082179307A1F03093C7012093C601E09165
:101150002603F0912703309751F084E089833B8385
:101160002A830084F185E02DCE010196099523960E
:10117000E2E00C94BF35909114019923C1F0909155
:101180001D0597FF14C0E82FE695E695E695803F8C
:10119000F8F4F0E0E457FE4F877021E030E001C042
:1011A000220F8A95EAF78281822B82830895A6E82E
:1011B000B1E0EFEF90E02D91821751F0EF3F19F47D
:1011C000211101C0E92F9F5F9630A9F7EF3F09F485
:1011D00008950E2E000CFF0BEC57FE4FE6CF9091BA
:1011E00014019923E1F090911D0597FF18C0E82F95
:1011F000E695E695E695803FF0F4F0E0E457FE4F83
:10120000877021E030E0A90102C0440F551F8A9584
:10121000E2F7CA0180959281892382830895E6E8E6
:10122000F1E09191891303C0DF0111971C9251E005
:10123000EC38F507B1F708952FB7F8948091D702ED
:101240009091D802A091D902B091DA022FBF0895EF
:101250008091FB049091FC04892B91F00E941C0961
:1012600020913F0430914004AC01421B530B9A0182
:1012700081E04091FB045091FC042417350708F4E9
:1012800080E081700895CF93DF93C09142048091F4
:101290004404C82B80914104882329F18091FB04E8
:1012A0009091FC04892B29F00E94280981110E9449
:1012B000F303D0914104809114018823F1F08091CF
:1012C0001D0587FF1AC02EE831E08DE190E0F9019D
:1012D00040812F5F3F4F41119F5F8150C0F79111B7
:1012E0000E94F303CD2B8091A00380958C239091D5
:1012F0009F03892BDF91CF91089526E831E085E0A7
:10130000E5CF90911E0592FF10C098E0899F900153
:101310001124622B609345040E94F5020E941C096F
:10132000909347048093460408950E94F50208951F
:1013300090914104292F2823222361F0809589234D
:1013400080934104882339F00E941C0980933F0454
:1013500090934004089580E090E0F8CFCF93C82F99
:1013600080911E0582FF0CC0809141048C1741F0D2
:101370000E941C099093400480933F04C093410451
:10138000CF9108950E941C092091910330919203FE
:10139000232B222321F08093F3029093F4022091D7
:1013A000930330919403232B222321F08093F102A5
:1013B0009093F202E0912603F0912703309749F0D1
:1013C00082E080938F030680F781E02D8FE893E021
:1013D000099508952091910390919403309193037E
:1013E000662309F45AC040919203242B292B232B06
:1013F000222331F098E090938D0391E090938C0339
:101400008D3C41F40E94C1078195809392030E9414
:10141000C2090895E2E3E80FE231C8F7F0E0E45AC8
:10142000F94C0C9486350E94C107EFCF0E94C1078A
:10143000819580939103EBCF0E94C107FACF0E9460
:10144000210880939303E3CF0E9421088195F9CF6F
:101450000E942108819580939403D9CF0E9421088E
:10146000FACF815D990B21E030E001C0220F8A950F
:10147000EAF780919003822B80939003C8CF8091EC
:101480008E03816080938E03C2CF80918E03826031
:10149000F9CF80918E038460F5CF8D3C59F4809113
:1014A000920387FF0DC010929203222359F41092E9
:1014B0008D0308C08E3C81F48091920318169CF332
:1014C000222381F08091930390919403892B8111C1
:1014D0009ECF10928C039BCF8F3C41F427FFF0CF1F
:1014E00010929103809192038823E0CF803D19F4FC
:1014F0001216B4F3E5CF893D29F413160CF71092B8
:101500009303DECF8A3D19F437FFDACFF8CF8B3D56
:1015100029F497FFD5CF10929403D2CF8C3D19F4C4
:101520001916CCF3CDCF9FE2980F983090F4815DDF
:10153000990B41E050E0BA0102C0660F771F8A950F
:10154000E2F7CB01809590919003892380939003DB
:10155000B7CF8D3D31F480918E038E7F80938E03C3
:10156000AFCF8E3D21F480918E038D7FF7CF8F3DDD
:1015700009F0A6CF80918E038B7FF0CFA4E0B0E07E
:10158000E4ECFAE00C94A3358FB7F8942091D702DD
:101590003091D8024091D9025091DA0229833A83DE
:1015A0004B835C838FBF69817A818B819C81249678
:1015B000E2E00C94BF350F931F93CF93DF93D82FA6
:1015C000C92F4091A6035091A7036091A803709181
:1015D000A9032FB7F8948091D7029091D802A091D7
:1015E000D902B091DA022FBF841B950BA60BB70B63
:1015F000843F9140A105B10528F56091A603709143
:10160000A7038091A8039091A90304EF11E020E0C3
:1016100030E06093DF027093E0028093E1029093E8
:10162000E2020093DB021093DC022093DD02309390
:10163000DE02D093A403C093A503DF91CF911F9145
:101640000F9108950E94BE0A02E310E020E030E00E
:10165000E0CF9C014FB7F8948091D7029091D802C7
:10166000A091D902B091DA024FBF821B930B08956B
:1016700087E797E7909301088093000888E19AE054
:101680000FB6F894A895809360000FBE9093600009
:10169000FFCF8091C5010895FC019B018091BB01A2
:1016A0009091BC018617970740F0672B29F4809131
:1016B000E8008E778093E800C90140E0009741F48C
:1016C000411106C08091E80082FF2FC080E008959C
:1016D0002091FF022223A9F12530A9F12091E800F1
:1016E00023FD2DC02091E80022FDECCF2091E800E1
:1016F00020FFE4CF3091F3002091F200009719F021
:101700002830310558F041E02830310509F040E03B
:101710002091E8002E772093E800D0CF41914093AC
:10172000F10001972F5F3F4FE9CF8091FF0288239F
:1017300041F0853041F08091E80083FFC3CF81E024
:10174000089582E0089583E008958091B50187FFB0
:1017500013C08091E80082FF06C08091E8008B777B
:101760008093E80004C08091FF028111F2CF0895B8
:101770008091FF028823D9F38091E80080FFF8CFA1
:101780008091E8008E77ECCF2091E4003091E50065
:1017900095E6A9018091EC008170882331F0809159
:1017A000E80080FF06C080E008952091E80022FD57
:1017B0001BC08091FF02882391F0853091F08091C9
:1017C000EB0085FD10C02091E4003091E500421748
:1017D000530701F391509111DCCF84E0089582E02A
:1017E000089583E0089581E00895E8EDF0E08081B8
:1017F0008E7F80831092E2001092DA001092E10056
:10180000A0EEB0E08C9181608C9380818F77808393
:1018100019BCA7EDB0E08C918E7F8C9380818F7E78
:1018200080831092B4010895982FE42FE270909372
:10183000E900891308C0762F242F50E0E11111C070
:1018400091E0980FF4CF7091EC002091ED00509151
:10185000F00021FD06C09F5F973049F78093E900B3
:1018600008953091EB003E7F3093EB003091ED0016
:101870003D7F3093ED003091EB0031603093EB0011
:101880007093EC002093ED005093F0002091EE0057
:1018900027FDE1CF0895A0E0B0E0E1E5FCE00C9485
:1018A0009D35C8EDD0E088818F7E8883E7EDF0E03C
:1018B00080818160808384E082BF81E08093B40175
:1018C00088818E7F888302EE10E0F80110821092EA
:1018D000DA0081EEC82ED12CF601108288818F7734
:1018E000888388818068888388818F7D888319BCFC
:1018F0001092FF021092B3011092D2021092B20124
:1019000090EEE92EF12CF70180818B7F8083888116
:101910008160888342E060E080E00E94140CF60160
:1019200080818E7F8083F8018081816080838081C7
:1019300088608083F70180818E7F808388818061C9
:101940008883CDB7DEB7E8E00C94B9359C0121154A
:10195000310509F408958FE99FE00197F1F700C080
:10196000000021503109F3CF0F931F93CF93DF93E2
:10197000EB018A019091FF02943079F58093E900A0
:101980008FEF9091E80095FD07C095ED9A95F1F7DE
:10199000000081508111F5CF8091E80085FF1DC0C6
:1019A0000E94C40B811114C08091E80085FD06C01F
:1019B0008091E8008E778093E800F2CF8881809351
:1019C000F100015011090115110511F02196ECCF1C
:1019D0008091E8008E778093E800DF91CF911F918E
:1019E0000F910895CF93DF93D82FC92F48E050E08F
:1019F000682F792F81E00E94B40C88E0ED2FFC2F36
:101A0000ADEBB1E001900D928A95E1F7DF91CF91B6
:101A10000895BC0140E250E084E00E94B40C0895B7
:101A2000BC0146E050E084E00E94B40C0895BC0183
:101A300043E050E084E00E94B40C089590911E05AC
:101A400092FB222720F9281779F080FB92F99093D6
:101A50001E0560911D0570911E0584E090E00E94B6
:101A60003C3682E00E94C90308951F93CF93DF9311
:101A7000C62F122F632F982F942B9430C8F4C330A5
:101A8000B8F498E0C99FE001112450E0440F551FBD
:101A9000C40FD51F98E1899FC00DD11D1124CE011F
:101AA00088960E941E36612FCE0189960E941E36AE
:101AB000DF91CF911F9108951F93CF93DF93962FBE
:101AC000122F632F8430D0F49230C0F428E0829F2C
:101AD000E001112424E0929FC0011124C80FD91FF6
:101AE000C857DF4FCE01442369F00E941E3681E0C3
:101AF00090E0612F8C0F9D1F0E941E36DF91CF91C9
:101B00001F91089502960E941E3683E090E0F1CF67
:101B1000CF93DF93CCEBD1E060E0CE010E941E3684
:101B20002196C11584E0D807B9F7DF91CF910895C8
:101B3000882381F064EE84E290E00E941E3665ED19
:101B400085E290E00E941E366DE486E290E00E94FD
:101B50001E3608956FEF84E290E00E941E366FEF0C
:101B600085E290E00E941E366FEFEFCF0F931F9338
:101B7000CF93DF9309EF14E0C8EAD0E0CE010E94D2
:101B80000036F80161918F01861719F0CE010E948D
:101B90001E362196CC3CD10589F7DF91CF911F915C
:101BA0000F9108950F931F93CF93DF9309EF14E0E4
:101BB000C8EAD0E0CE010E940036F80181938F017F
:101BC0002196CC3CD105B1F7C3E6D3E0FE01859167
:101BD0009491009711F0FC0109952C96F4E0CF3513
:101BE000DF07A1F7DF91CF911F910F9108950F9318
:101BF0001F93CF93DF93982F942B943020F563306D
:101C000010F528E0629FE001112450E0440F551FB9
:101C1000C40FD51F38E1839FC00DD11D1124CE0103
:101C200088960E940036082F10E0102F0027CE0162
:101C300089960E9400369801282BC901DF91CF9127
:101C40001F910F91089580E090E0F8CF0F931F93BC
:101C5000CF93DF93843078F5623068F528E0829F77
:101C60008001112434E0639FB0011124060F171F77
:101C700008571F4FC8014423A1F00E940036C82F07
:101C8000D0E0DC2FCC2781E090E0800F911F0E94F4
:101C900000369E01282BC901DF91CF911F910F9132
:101CA000089502960E940036C82FD0E0DC2FCC2782
:101CB00083E090E0EACF80E090E0EECF2091020355
:101CC00030910303232BD9F4703F39F4603FB9F40A
:101CD00080910003909101030895733048F4982F88
:101CE000962B943060F4462F672F0E94F70D0895CD
:101CF0007D3F41F4623018F441E0843050F080E0E0
:101D000090E008957C3FD9F76230C8F78430B8F787
:101D100040E00E94260E0895A0E0B0E0E2E9FEE077
:101D20000C949E357C010091F8048091F704082BF7
:101D3000C3E0D0E010E0C8010C2E02C09595879555
:101D40000A94E2F780FD09C02197A8F7D12C8D2DC8
:101D5000CDB7DEB7E7E00C94BA35DC2EB7018C2F97
:101D60000E945E0E0E94F104019771F3F0CFCF93B1
:101D7000DF93D82FC92F0E948C0E6D2F7C2F0E94CD
:101D80005E0E0E94F104DF91CF910895FC018481E1
:101D9000882371F087819085009729F00E94F104D3
:101DA0000E94D2020895808191810E94B70EF8CFDF
:101DB00080E008951F93CF93DF93182FD92F6623C8
:101DC00099F0442389F00E948C0EC82F682F812F30
:101DD0009D2F0E946803612F7D2F8C2F0E945E0E25
:101DE000DF91CF911F9108950E948303C82FF3CFF5
:101DF000FC01462F87819085009729F465818081B9
:101E000091810E94DA0E089584E290E00E940036EB
:101E1000843E89F485E290E00E940036853D59F4C5
:101E200086E290E00E94003691E08D3409F090E067
:101E3000892F8170089580E0FCCF80911401882360
:101E400059F180911D0587FF27C00E9443098093A7
:101E50008D0140E250E066E073E08CE891E00E9482
:101E6000D335892BC1F080E2ECE8F1E0A6E0B3E0E5
:101E700001900D928A95E1F7E0912603F0912703F6
:101E8000309749F086E080938C010480F581E02D45
:101E90008CE891E0099508950E944309809384019C
:101EA00048E050E068E273E084E891E00E94D335B6
:101EB000892B89F388E0E4E8F1E0A8E2B3E001903F
:101EC0000D928A95E1F7E0912603F0912703309770
:101ED00011F30280F381E02D84E891E0DBCF8823C9
:101EE00021F00E94E5030E941D0F0895882339F018
:101EF00090914404892B809344040E941D0F0895FF
:101F0000882321F00E94EB030E941D0F089588236F
:101F100041F08095909144048923809344040E9469
:101F20001D0F0895CF93C82F8823B1F18CEF8C0F2C
:101F3000813AA0F580911401882301F180911D055B
:101F400087FF1CC0EC2FE695E695E695F0E0E45798
:101F5000FE4F828190E04C2F477021E030E002C0BC
:101F6000220F331F4A95E2F782239323892B79F0BE
:101F70008C2F0E94EF080E941D0F09C0E6E8F1E0D7
:101F80008191C817A9F321E0EC38F207C9F78C2F2B
:101F90000E94BB080E941D0FCF91089580E28C0F14
:101FA000883048F4C77081E001C0880FCA95EAF70D
:101FB0000E94E503EFCF8BE58C0F833038F42C2F94
:101FC0002452330BC9010E946F08E6CFE8E5EC0FFD
:101FD000EB3150F4F0E0EE0FFF1FE55BFE4F808128
:101FE00091810E949508D8CF83E38C0F8331A0F6AE
:101FF00061E08C2F0E94EA09CFCFCF93DF93EC01F1
:10200000805E9109089720F066E77FE0209711F441
:102010006FE67FE0CE010E94C8028C2F0E94920FD3
:10202000DF91CF910895662329F020914404226026
:10203000209344049C0130522115304308F4992721
:102040000E94FD0F0895882381F19CEF980F913A2B
:1020500028F40E94EF080E941D0F089590E2980F47
:10206000983050F4877091E001C0990F8A95EAF793
:10207000892F0E94EB03EFCF9BE5980F933028F454
:1020800080E090E00E946F08089598E5980F9B31DA
:1020900028F480E090E00E949508089593E3980F5B
:1020A000933118F460E00E94EA090895CF93DF931A
:1020B000EC010E942310CE01805E9109089720F068
:1020C00067E87FE0209711F460E87FE0CE010E948E
:1020D000C802DF91CF9108951F93CF93DF93182FFC
:1020E000EB010E94920F209739F4812F0E94231058
:1020F000DF91CF911F9108958FE99FE00197F1F74C
:1021000000C000002197EFCF6091190570911A056A
:10211000893321F060911705709118050E946C10A9
:1021200008951092420480911401882339F180911E
:102130001D0587FF23C0EEE8F1E08EE1DF011D926F
:102140008A95E9F780E090E00E946F0880E090E0D7
:102150000E949508109244040E941D0F86E0EFE84B
:10216000F3E0DF011D928A95E9F710928D0310923A
:102170008C0310928E030E94C2090895E6E8F1E0F4
:1021800086E0DCCF0E9491102FEF84E39CE0215089
:1021900080409040E1F700C0000088E19AE00FB66F
:1021A000F894A895809360000FBE90936000FFCFD5
:1021B000CF92DF92EF92FF92FB018FEF9FEF4430BF
:1021C000510508F481C0C080D180E280F3800E9474
:1021D0009110D701C601B695A795979587958170FF
:1021E000282F220FD701C60181709927AA27BB2764
:1021F000822BB701A60132E07695679557954795F2
:102200003A95D1F74170440F440F842BB701A601D2
:10221000E3E07695679557954795EA95D1F7417034
:10222000440F440F440F842BB701A601F4E07695C8
:10223000679557954795FA95D1F741704295407F3C
:10224000842BB701A601A5E076956795579547952C
:10225000AA95D1F741704295440F407E842BB70177
:10226000A601B6E07695679557954795BA95D1F74B
:1022700041704295440F440F407C842BB701A60166
:1022800097E076956795579547959A95D1F7479535
:1022900044274795842B80931D05D1FA882780F920
:1022A000880F9D2D9170892B90911E059C7F892B05
:1022B00080931E0560911D0570911E0584E090E0DD
:1022C0000E943C3680E090E0FF90EF90DF90CF904E
:1022D0000895E9EFF4E0128E138E8FEA90E0918377
:1022E000808325E0248F88E893E1938382838AE0CA
:1022F00090E09583848344E150E05783468348E02F
:1023000050E051874087938782876EE170E0758740
:1023100064879787868780E590E0918B808B538BCD
:10232000428B48E250E0558B448B42E350E0578BA0
:10233000468B48EC50E0518F408F158E178E168ECD
:1023400091A380A322A30E94B60D0E949110109227
:102350001E0510921D0580E0846080931E0560E0DC
:1023600074E084E090E00E943C360E94D20D089513
:10237000AAE2B0E0EEEBF1E10C94A23585EB91E03E
:10238000FC0101962091F100208321E08D3B920712
:10239000B9F78091B601893009F456C0C8F482308B
:1023A00009F4B3C0833009F482C0813071F18091A7
:1023B000E80083FFE7C08091B5019091B6019A30A3
:1023C00008F0E0C0E92FF0E0E259F94C0C948635B2
:1023D0008A3009F489C08B3051F78091B501813280
:1023E00031F78091B9019091BA01892B01F7809161
:1023F000E800877F8093E8000E94A50B8091B701D9
:10240000809314010E949110D2CF8091B501813A3E
:1024100071F68091E800877F8093E8008091B90190
:102420009091BA01892B61F060E080E090E070E06B
:102430000E944C0B8091E8008B778093E800B7CF27
:1024400068E08DEB91E0F3CF8091B501813209F026
:10245000AECF8091B9019091BA018D7F892B09F09F
:10246000A6CF8091E800877F8093E8008091E80004
:1024700082FF18C09091F3008091F200029731F42E
:102480008091F100813011F0863021F48091F100CB
:102490008093C5018091E8008B778093E8000E94CB
:1024A000A50B85CF8091FF028111E0CF80CF809175
:1024B000B501813A09F07BCF8091B9019091BA01C1
:1024C000892B09F074CF8091E800877F8093E80022
:1024D0008091E80080FFFCCF809114018093F1008F
:1024E0008091E8008E77D9CF8091B501813209F0D3
:1024F0005ECF8091E800877F8093E8000E94A50B63
:102500008091B8018093B10152CF8091B501813A99
:1025100009F04DCF8091E800877F8093E80080919B
:10252000E80080FFFCCF8091B101D8CF803889F0DE
:10253000823841F58091B9018F70873018F580930A
:10254000E9008091EB0085FB882780F91092E90073
:1025500006C08091B2019091D20291118260909157
:10256000E800977F9093E8008093F1001092F100CB
:102570008091E8008E7723C0811116C08091B70149
:10258000813011F18091E80083FF0AC08091E8005A
:10259000877F8093E8008091EB0080628093EB005E
:1025A000AA96E3E00C94BE35823061F78091B701C2
:1025B000882389F01092E9008091E800877F80935A
:1025C000E8000E94A50BDECF81E0933009F080E0A7
:1025D0008093D202EFCF8091B9018F702FEF280F37
:1025E000263080F68093E9002091EB0020FFE2CFB7
:1025F000933031F48091EB0080628093EB00DACF6E
:102600009091EB0090619093EB0021E030E0A90104
:1026100002C0440F551F8A95E2F74093EA001092DA
:10262000EA008091EB008860E8CF8111ABCF109178
:10263000B7011F778091E3008078812B8093E300BE
:102640008091E800877F8093E8000E94A50B80912D
:10265000E80080FFFCCF8091E30080688093E30076
:1026600083E0111101C082E08093FF028BCF80587C
:10267000823008F087CF4091B7015091B8014C3DAE
:1026800083E0580799F583E08A838AE289834FB70C
:10269000F894DE01139620E03EE051E2E32FF0E0F3
:1026A00050935700849120FF03C082958F703F5F45
:1026B0008F708A30C8F0895C90E08D939D932F5F76
:1026C000243161F74FBF8091E800877F8093E80055
:1026D0006AE270E0CE0101960E944C0B8091E80006
:1026E0008B778093E8004ECF805DE6CF8091B90173
:1026F0009091BA01252F33272330310509F44AC0C0
:1027000078F52130310509F483C08BE590E0E8E7E6
:10271000F2E02230310509F035CF2091E800277F23
:102720002093E8002091BB013091BC0182179307F0
:1027300008F49C0140E02115310509F06EC04111FB
:102740006CC08091E80082FDC9CF8091FF02882390
:1027500029F2853019F28091E80083FFF2CFBECFD5
:102760002132310509F445C02232310509F00ACF82
:102770008330910508F006CFFC01EE0FFF1FEC5DE2
:10278000FE4F0190F081E02D8F5D9E4FDC018C911A
:1027900090E010C0CA019927423019F183309105A9
:1027A00068F4892BB1F4E5E3F3E0E4918E2F90E037
:1027B000E5E3F3E0009709F4E5CEAFCF039709F026
:1027C000E1CEE5EEF2E0E4918E2F90E0E5EEF2E06E
:1027D000F1CFE9E1F3E0E4918E2F90E0E9E1F3E05D
:1027E000E9CFE3E0F3E0E4918E2F90E0E3E0F3E063
:1027F000E1CF8330910508F0C5CEFC01EE0FFF1F3D
:10280000E65DFE4F0190F081E02D89E090E085CFFC
:1028100082E190E0E3EDF2E080CF8091FF02882337
:1028200009F45CCF853009F459CF8091E80083FD2D
:1028300055CF8091E80082FD84CF8091E80080FF31
:102840007ACF9091F3008091F2002115310519F0B3
:102850008830910550F041E0089709F040E0809100
:10286000E8008E778093E80066CF44914093F100B2
:102870003196215031090196E8CF803809F082CE97
:102880008091E800877F8093E8008091B301809376
:10289000F1006ECE811176CE1091B701123008F0A2
:1028A00071CE8091E800877F8093E8001093B30198
:1028B0000E94A50B1123D1F084E08093FF0242E037
:1028C00061EC81E00E94140C42E261EC84E00E9421
:1028D000140C42E261EC82E00E94140C42E260ECD3
:1028E00083E00E94140C8091FF024CCE8091E300A3
:1028F00087FDE2CF81E0E1CF80911601877F809351
:102900001601909144049D7F9093440484FF06C077
:102910008F7E8093160182E00E94E503809116016C
:1029200085FF06C08F7D8093160180E20E94E5033B
:102930000E941D0F0895CF92DF92FF920F931F9375
:10294000CF93DF93EC018B01F42E8091160182FF6F
:1029500066C0C0903204D0903304CC16DD0619F066
:10296000209709F05CC0809116018B7F809316013F
:10297000C1E081FD10C08091300490913104980134
:10298000281B390BC1E080910E0190910F0128178F
:10299000390708F4C0E0C17080911601C0FB81F9CD
:1029A000809316016C2FC6010E942F07809142046C
:1029B00081FF08C08091160180618093160182E03A
:1029C0000E94EB038091420485FF08C080911601AC
:1029D00080628093160180E20E94EB036C2FC60197
:1029E0000E941310FF2031F08091140585FF02C072
:1029F00086FF29C080911705909118050E94A60CAA
:102A000080913204909133049C013052211530435F
:102A100008F499270E9456100E947C1410C0CE0121
:102A2000905281159043B8F4CE0199270E94561018
:102A30008091320490913304C817D90769F3109339
:102A4000310400933004DF91CF911F910F91FF90DB
:102A5000DF90CF900895CE01E9CFCF93DF93EC01C3
:102A60004A855B856E857F850E945D089B81909578
:102A7000809144048923809344048C810E94EB0359
:102A80000E941D0F86E0FE0111928A95E9F7DF9101
:102A9000CF910895CF93DF93EC018D8181FD14C018
:102AA00082608D83809144049B81892B80934404B0
:102AB0008C810E94E5030E941D0F488559856E8513
:102AC0007F85CE010E945D081092AD031092AC0389
:102AD0008D8180FD03C0CE010E942D15DF91CF9125
:102AE00008951F93CF93DF93182FA091A203B09165
:102AF000A303109709F44AC01092A5031092A403EF
:102B00001092A00310929F031696CD91DC91179717
:102B1000CE019A9581159F4108F4D07ED1E0C11174
:102B200001C0D0E01996ED91FC911A97309731F0E1
:102B30001B966D917C9180E00995D823DD2339F0B7
:102B40008CEF8C0F813A30F58C2F0E94EF08112307
:102B5000A9F0E091A203F091A303808584FD0EC04B
:102B60008091A103882351F0808191819C012150A3
:102B700031092F333E4710F40E94DB0A0E941D0FDB
:102B80001092A3031092A2031092A103DF91CF91A0
:102B90001F9108950E941D0F8C2F0E942310D7CFE4
:102BA0008F929F92AF92BF92CF92DF92FF920F933C
:102BB0001F93CF93DF93CDB7DEB76E970FB6F89420
:102BC000DEBF0FBECDBFC090FD02D090FE0281E0FF
:102BD00090E09093FE028093FD0210E089E3A82E1E
:102BE00083E0B82E00E01AC021E030E0111104C0EB
:102BF000F401859194919C014F2D602F812F0E94AB
:102C0000350DF39482E0880E911CA4E0FA12ECCF0B
:102C10000F5FB8E0AB0EB11C033019F04501F12C89
:102C2000E3CF112309F485C021E030E041E060E00A
:102C3000812F0E945C0D21E030E040E060E0812FB8
:102C40000E945C0D21E030E041E061E0812F0E94B4
:102C50005C0D21E030E040E061E0812F0E945C0DDE
:102C60001F5F143009F0BACF0E9469111A821982CD
:102C70001C821B821E821D8218861F8288EC90E0B7
:102C80009A8789870CEC10E04AE050E0B801CE0149
:102C900001960E944236065F1F4F0C3181E01807F3
:102CA00099F7FE013B968AE0DF011D928A95E9F7CC
:102CB000BE2EFF2E4AE050E0B8018B2D9F2D0E94C2
:102CC0004236065F1F4F0C36B1E01B0799F7FE0135
:102CD000759689E0DF011D928A95E9F78FEF9FEFE6
:102CE0009A8F898F87E08E8FBE2EFF2E4AE050E0AC
:102CF000B8018B2D9F2D0E944236065F1F4F0C3B63
:102D0000B1E01B0799F7D092FE02C092FD026E96C9
:102D10000FB6F894DEBF0FBECDBFDF91CF911F91EC
:102D20000F91FF90DF90CF90BF90AF909F908F90CA
:102D30000895E1E5F3E02591349141E060E080E021
:102D40000E945C0DE3E5F3E02591349140E060E002
:102D500080E00E945C0DE5E5F3E02591349141E0CF
:102D600061E080E00E945C0DE7E5F3E0259134919D
:102D700040E061E080E00E945C0D11E02FCF80E038
:102D80000E94980D60E087E290E00E941E360E944B
:102D9000D0150E94880D81E00E94980D0895AAE048
:102DA000B0E0E5EDF6E10C949D35E6E7F2E080E574
:102DB000DF011D928A95E9F7E8E4F4E088E3DF019A
:102DC0001D928A95E9F786E7C82E82E0D82E7F010A
:102DD0000CE111E0F701D182C0824AE050E0B80175
:102DE000CE0101960E94F03588E0FE013196D601B1
:102DF00001900D928A95E1F789859A85D7011396FE
:102E00009C938E931297BAE0CB0ED11CE7E0EE0EA6
:102E1000F11C065F1F4F0C36F1E01F07D9F62A960A
:102E2000E8E00C94B935AAE0B0E0E9E1F7E10C94F0
:102E300099350EEF11E08CEEC82E81E0D82E9CE67D
:102E4000E92EFF24F39427E0922E3BEEA32E31E0EF
:102E5000B32E88248394D6010D931D936D014AE00F
:102E600050E0B701CE0101960E94F035F801389686
:102E7000DF01892D1D928A95E9F789819A81D80110
:102E800011969C938E938F8112968C9312978D81BD
:102E900013968C931397888514968C931497898531
:102EA00015968C9315978B819C8117969C938E9386
:102EB00016978A8587FD04C01E96BC92AE921D9718
:102EC00080FF02C0F801808681FF07C0D8011896F4
:102ED0009C911897926018969C9382FF04C0F80109
:102EE00090859460908783FF07C0D80118969C91C5
:102EF0001897986018969C9384FF04C0F8019085F9
:102F00009061908785FF07C0D80118968C9118971B
:102F1000806218968C93015F1F4FBAE0EB0EF11C94
:102F2000ECEBEE16E1E0FE0609F095CF2A96ECE018
:102F30000C94B535282FCB01283070F44AE0249F3B
:102F400090011124B90164537F4F4AE050E00E9480
:102F5000F03580E090E008958FEF9FEF0895AAE0AC
:102F6000B0E0E5EBF7E10C94A3359C0197558F3F5A
:102F7000910509F070F4BE016F5F7F4F822F0E94B0
:102F80009A17892B31F489859A852A96E2E00C9468
:102F9000BF358091110590911205F7CFA0E0B0E008
:102FA000E4EDF7E10C949E35D62E172FC42FD22FC7
:102FB0008823A9F040933D040E941C099093B0011E
:102FC0008093AF01C77081E001C0880FCA95EAF70E
:102FD0000E946F0FCDB7DEB7E7E00C94BA35809151
:102FE0003D04481337C08091AF019091B0010E9419
:102FF000290B7C018D2D912F0E94AF17E816F90641
:1030000048F5CD130CC0802F0E948410D77081E04A
:1030100001C0880FDA95EAF70E94800FDBCFC770F6
:1030200011E0812F01C0880FCA95EAF70E94800F36
:1030300080E28D0F883050F48D2F877001C0110F02
:103040008A95EAF7812F0E946F0FDDCF802F0E94B3
:103050008410C0CFC77081E001C0880FCA95EAF71D
:10306000DBCF9C01CB01BA01F90132964591549115
:103070006417750748F0F9013496659174910E94C0
:10308000E03580E090E008958FEF9FEF08959C0178
:10309000DA010296FC0145915491FC0185919491CD
:1030A000A817B90758F0F9013496859194910E94B8
:1030B000E0350E94B60D80E090E008958FEF9FEF1D
:1030C0000895A3E0B0E0E7E6F8E10C9498351A82A1
:1030D00019821B8284E3A82E81E0B82E8E010F5F37
:1030E0001F4F97E3E92E91E0F92E4801CC24C394B9
:1030F000D12CF50181915F018F3F09F442C0F89412
:10310000E82FE295EF70F0E021A18F70A60102C0D8
:10311000440F551F8A95E2F7CA01922F982B91A36D
:1031200092A18095892382A3789400C0E7E3F1E01F
:1031300031E0712C21912F3F09F448C0A22FA295B4
:10314000AF70A05EB0E08C9190E02F7002C09595BA
:1031500087952A95E2F78170811138C0832F782AEC
:10316000330F51E0EB33F50729F7F50131978081F3
:103170008F3F11F00E940C0680EA8A95F1F7F80162
:1031800070820F5F1F4FEA14FB0409F0B2CF43E0D7
:1031900050E0B4018EEC92E00E94D335892BC1F04F
:1031A00089819A81AB818093CE029093CF02A093C4
:1031B000D00281E08093AE010E941C099093AD0182
:1031C0008093AC012396EDE00C94B43580E0C7CF3A
:1031D0008091AE018823B1F38091AC019091AD0153
:1031E0000E94290B059770F343E050E06EEC72E00B
:1031F0008AEF92E00E94D335892B61F08091CE0254
:103200009091CF02A091D0028093FA029093FB029A
:10321000A093FC021092AE01D5CFA0E0B0E0E3E1B4
:10322000F9E10C949C35EC010881002309F4A8C055
:10323000013009F044C08981813049F48E010E5F6C
:103240001F4F8A810E948410E8012196EDCF8230C1
:1032500039F48E010E5F1F4F8A810E94920FF4CFC6
:10326000833039F48E010E5F1F4F8A810E94231034
:10327000EBCF843011F02196E8CF2A81229680E0AE
:1032800090E06AE0AE014F5F5F4F2053330B2A306E
:10329000310550F00097C9F2EFE9FFE03197F1F7FF
:1032A00000C000000197F6CF689FF001699FF00D04
:1032B0001124C9018E0F9F1F2981EA01E3CFE02F5E
:1032C000F0E0E850FE4FB490202F269526952695E5
:1032D00030E0F901E851FE4FE4900770F12C002E28
:1032E00002C0F594E7940A94E2F7F1E0EF22FF249C
:1032F000F901E852FE4FC490D12C002E02C0D594A3
:10330000C7940A94E2F781E0C822DD24F901E8536A
:10331000FE4F1491E114F104A9F4C114D10409F58C
:1033200060E070E08B2D0E946C10E12FF0E002C095
:10333000F595E7950A95E2F7E0FF87CF8CE20E94CA
:10334000841083CF81EE0E94920FC114D10449F4FE
:1033500060E070E08B2D0E946C1081EE0E942310C3
:10336000E4CF86EE0E94920F60E070E08B2D0E9409
:103370006C1086EE0E942310E114F104B1F2EDCF3F
:10338000CDB7DEB7E9E00C94B835A5E0B0E0EBECE2
:10339000F9E10C9493357C01DC0114968C9188231F
:1033A00009F472C261E0C7010E94F80E8C01F701B6
:1033B0008581882319F18091AC039091AD0300972A
:1033C000E9F008171907D1F09927E4E0880F991F51
:1033D000EA95E1F7FC01EB54FC4F20812460208347
:1033E00080559C4FDC010D931C930E944A1510924E
:1033F000440461E0C7010E94F80E8C01F70155807A
:10340000552009F4BCC0C80197578038910508F0D1
:1034100011C2D02EFFE0F01708F426C28FEF93E020
:103420000E940036811120C20CEB11E0D11038C08F
:1034300074E0C72EAE014F5F5F4F4A01D401EC2DFF
:103440001D92EA95E9F75801FFEFAF1ABF0AC801CC
:103450000E9400368983882309F406C2813009F06E
:103460008AC0380122E0620E711CC5010E9400363C
:10347000D82E8A83882309F4F7C18FEF8D0D83300E
:10348000E8F4C3010E9400368B83882319F0C4013D
:103490000E940D19580143E0A40EB11C8501CECF46
:1034A000011524E0120709F4DFC1C8010E940036AB
:1034B0000F5F1F4F8111F4CFDA94B8CF8BEF8D0DD2
:1034C000833058F5580153E0A50EB11CC3010E948A
:1034D00000368B83882311F3C5010E9400368C834C
:1034E000882381F08B819C818130AFEF9A0710F0A7
:1034F000982F8827B6E0DB1651F0E7E0DE1651F092
:103500000E94F6295801F4E0AF0EB11CC7CF0E940B
:10351000B229F8CF0E94D429F5CF24E05301D2126A
:10352000BDCFC3010E940036D82E580144E0A40E3E
:10353000B11CC80103960E940036282FDD2009F433
:1035400093C1882309F490C12150330B4FEF429F60
:10355000C001439F900D1124AD2DA150BB0B8A0FCC
:103560009B1F019708F49ACFEFE9FFE03197F1F73D
:1035700000C00000F6CFC4010E940D198FCF0115C5
:1035800027E5120708F484C1011548E5140708F07F
:1035900022C1680157E5D51A65E973E08C2D0E94B8
:1035A0009A17892B21F5C60154E0880F991F5A9567
:1035B000E1F7FC01E055FC4F22812130D9F4209144
:1035C000950330919603232B91F02091970330912E
:1035D0009803232B61F02091990330919A03409135
:1035E0009B0350919C03242B352B232B59F0F7017F
:1035F000558015C02230D9F72091990330919A0354
:10360000232BA9F3FC01EB54FC4F20812E7F208358
:1036100080559C4F0E944A15D70115965C90809169
:103620001501882309F45EC1480150EE851A9108FE
:103630004090430480914204482A80914104482AE2
:1036400088E08816910408F096C198012770332706
:1036500081E090E001C0880F2A95EAF7552009F42F
:1036600087C1482AD7018D919C910E94830321E054
:1036700030E0190102C0220C331C8A95E2F76090F9
:10368000A2037090A3031D82BD81EB2FF0E0EE0F2B
:10369000FF1FE451FE4FC080D180C114D10409F452
:1036A000BEC1411004C0F6018281811188C1D601DA
:1036B00013968C91139790E082219321892B09F422
:1036C0007EC118968C91982F977091116AC1B8E0BD
:1036D0008B16910408F077C151106BC1F601A080E0
:1036E000B1800A151B0509F46AC1C614D70409F490
:1036F00066C1D6011D96ED91FC91309721F0808135
:10370000882309F45CC1642DC6010E9492078823B6
:1037100009F455C10A151B0511F4511005C0A11477
:10372000B10409F058C1512C80E00E947115D0926B
:10373000A303C092A20381E08093A103F6018581D7
:103740008093A00351100DC0AB2859F08081918166
:103750009C0124503109213A310508F044C10E94EE
:10376000EF08F601A680B780C5019A9581159F41A3
:1037700010F420EEB22277247394C50101978F33A1
:103780009E4708F0712CD6011996ED91FC911A977D
:10379000309731F01B966D917C9181E009957822EC
:1037A00081E05826772009F437C1F6018681978198
:1037B0000E949E0280939F03C501F8E08F1691043A
:1037C00008F014C10E94DB0A0E941D0F511064C052
:1037D0000E941D0F49C080911501882309F482C100
:1037E0008091AA039091AB030817190781F41092F6
:1037F000AB031092AA031092A6031092A703109293
:10380000A8031092A9031092A5031092A403E091BB
:10381000A203F091A303309709F45DC080819181E8
:103820000817190709F057C01092A10380E00E9401
:10383000711551C00E35FCE71F0799F00F352CE7C5
:10384000120749F0509015010D354CE7140709F0A7
:1038500040C0552031F01092150180E00E94711592
:1038600003C081E08093150180914504877088230F
:1038700059F0F7018581882339F080911E0582FF78
:1038800003C082E00E94C9032596E2E10C94AF35A3
:10389000809115018111C8CE8091140580FF87C2E7
:1038A0000E941C096C01D70115968C9181112CC1C5
:1038B000013E110509F40DC1053E110509F0D4C101
:1038C000809116018F7D80931601D70115968C91FA
:1038D0006FC15110A9CEC80197558F3F910511F0C6
:1038E00008F000C1F801FF2734E0EE0FFF1F3A9502
:1038F000E1F7AF0140555C4F6A01D70115968C91F5
:10390000EB54FC4F908180FB90F99083882309F45D
:10391000ADC00E941C099093AF038093AE03F601E3
:1039200082818F5F82838091440490914204892B2D
:10393000838380914104848346815781668577859E
:10394000C6010E945D08D60115968C9181FD8BC041
:10395000902F812F9093AC038093AD038091140539
:1039600080FFF7C20E941C096C01F7018581ABC082
:103970008095482277CE552009F432CF1093AB03BF
:103980000093AA030E94BE0A6093A6037093A70344
:103990008093A8039093A9031092A5031092A40307
:1039A00061CEE8E08E16910488F4552031F081FF55
:1039B00006C0D601AD90BC9098CE82FD8FCE9D8181
:1039C0009F5F9D8361CE5110F4CFF9CF5520B9F39D
:1039D00080FFF5CFEECF8091AA039091AB038A15BB
:1039E0009B0569F7A0CE0E942310BBCE0497813AB5
:1039F000910530F48A2D0E94BB0851106CCFE8CE9F
:103A00000E941D0F8FE39CE90197F1F700C00000B1
:103A10008A2D0E94920FF1CF0E941D0FEECF6114EC
:103A2000710409F458CFA8E08A16910450F4642D6B
:103A3000C3010E94920781112FCF81E00E9471156E
:103A40002BCFF301808191810817190739F4552094
:103A500009F4EACE808585FD3ECFE8CE552009F4F5
:103A60003ACF8085F8CF90E080E074CFFA014485AA
:103A7000558566857785C6010E945D08D601159635
:103A80008C9181FF2CC0C6010E942D152091AC03A2
:103A90003091AD03809114050217130761F4109261
:103AA000AD031092AC0380FD5DCFF70185818823C3
:103AB00009F430C14EC080FF4CC20E941C096C0149
:103AC000D70115968C9181111FC0013E110509F097
:103AD000CBC0809116018F7E8093160167C08091C4
:103AE0001405E1CF8091140580FDDACED70115963B
:103AF0008C91F801E851FC47E730F10508F057C117
:103B0000E858F94C0C9486358091160182FF06C066
:103B100040E0B60180E090E00E949B140431FCE795
:103B20001F07C9F105312CE7120709F1D7011596D6
:103B30008C910331BCE71B0709F064C0909116011A
:103B40009160909316018823A9F11092330410928A
:103B5000320410923D04C8019057839708F4FDC1C8
:103B60000631BCE71B0709F078C091E02FC19091A6
:103B70001601892F8E7F90FF8160809316010E942D
:103B80007C148091160180FFA0CEF70185818823E7
:103B900009F40DC155C0809116018E7F80931601E6
:103BA0000E947C148091160180FDEFCFF701858182
:103BB0008111CFCFD70115968C91882309F459C074
:103BC0000A35BCE71B0709F4D9C208F0BDC20130B1
:103BD000FCE71F0709F4D0C203302CE7120709F4F1
:103BE000C5C201151C4709F044C00E9491109FEF07
:103BF000A4E3BCE09150A040B040E1F700C0000059
:103C00000E94380B9801305221153043F0F0D70153
:103C100015968C919091160190FF68CF083211058E
:103C200008F06BC00E31110508F0B6C098012450A1
:103C300031092A31310508F486C0882309F46AC0A5
:103C40001092330410923204B2C0109233041092D6
:103C50003204882371F010923D040737ECE71E0709
:103C600009F062C281E066C2C8019052811590439A
:103C700070F6D70117968D919C91009709F482C236
:103C80000E94F1048C01D7011596BC9015971696E9
:103C9000CC90C2942FE0C222809145048770882383
:103CA00001F1AB2CBB20F1F0812F807F803461F0DB
:103CB00080E2800F8830A8F0812F807E803221F44E
:103CC000023078F0CC2069F080911E0582FF09C097
:103CD00082E00E94C903809145048770AA24A394BE
:103CE0008111A12CE12FE295EF70103C08F07CC20D
:103CF000F0E0E158F94C0C94863509331105C0F415
:103D00000D32110508F04DC00B32110509F449C000
:103D100081111BCF07372CE7120709F413C282E089
:103D200008374CE7140709F045CF0E94010304C28D
:103D300004361105B1F1882309F4D8CE109233046A
:103D400010923204D3CE9091140594FD76CF88233F
:103D500009F4CDC08091410490914204892B8D7F5C
:103D6000882309F45BC010923304109232048091CE
:103D7000140581FD53C060E0C8010E942F0760E078
:103D8000C8010E941310809141048D7F0E94AE09EA
:103D900082E00E94C90368CD9091140593FD4DCF38
:103DA000D6CF9091140592FFD2CF8111C7CFF701E2
:103DB0008581811110923D04D70115969C91911136
:103DC000CACE0631FCE71F0709F0A4CF8091420458
:103DD0003091130530FF04C0282F247421118CC1A9
:103DE000282F2A7A31FF04C0482F4171411120E069
:103DF000432F487032FF82C1382F3878332309F4BB
:103E00007DC141118DC1911184C180913E048823EF
:103E100009F488C185E30E94EF08DACC89E0F70154
:103E2000A4E3B4E001900D928A95E1F71092370473
:103E300010923604809132049091330408171907C8
:103E4000C9F52091140525FF35C03091160131FFC9
:103E500002C026FF2FC0209130043091310456015A
:103E6000A21AB30A0E94AF17A816B90618F58091D6
:103E7000420481FF08C08091160180618093160181
:103E800082E00E94EB038091420485FF08C080918C
:103E9000160180628093160180E20E94EB0360911C
:103EA00016016695617080913204909133040E94EE
:103EB0001310DACC80914104B0904204B82AB1FAD0
:103EC000BB24B0F88D7F0E94AE0910933304009399
:103ED0003204D0923104C0923004BB0C6894B2F822
:103EE00090911601997FB92AB092160151CF40E006
:103EF000B601C8010E949B14B7CC06E221EE41EE48
:103F00006AE17CE70E94CE17AFCC07E225EE45EED2
:103F10006BE17CE7F7CF06E221EE40EE68E17CE75B
:103F2000F1CF07E225EE44EE69E17CE7EBCF06E254
:103F300021EE42EE6CE17CE7E5CF07E225EE46EEAE
:103F40006DE17CE7DFCF08E221E045EE6EE17CE742
:103F5000D9CFD70115968C91AACD84E090E00E942C
:103F6000083690931E0580931D05F801E150F04737
:103F7000E232F10520F4E557F94C0C948635809136
:103F80001D05816080931D0560911D0570911E05C2
:103F900084E090E00E943C360E94911065CC8091B4
:103FA0001E05886080931E05EFCF80911D058260FD
:103FB000E9CF80911D058460E5CF80911D05886063
:103FC000E1CF80911E058160EDCF80911E0582605A
:103FD000E9CF80911D058061D5CF80911D0580625C
:103FE000D1CF80911D058064CDCF0E94911080912A
:103FF0001D058068C7CF80911D058C60C3CF80915F
:104000001E058360CFCF80911D058E7FBBCF809131
:104010001E05877FC7CF80911D058D7FB3CF80910F
:104020001D058B7FAFCF80911D05877FABCF809122
:104030001E058E7FB7CF80911E058D7FB3CF8091F7
:104040001D058F7E9FCF80911D058F7D9BCF809119
:104050001D058F7B97CF0E94911080911D058F7752
:1040600091CF80911D05837F8DCF80911E058C7F20
:1040700099CF80911D0582FB992790F921E0922725
:1040800090FB82F990FB83F97DCF80911E05982FDC
:10409000909591708E7F892B90FB81F983CF9091C1
:1040A0001D05892F8F7B96FF80646CCF0E94911035
:1040B00090911D05892F97FB87F9805863CF61E0A8
:1040C0008EE090E00E941E365FCF60E0F9CF9091C5
:1040D0001D05892F8F7E94FF806154CF90911D051F
:1040E000892F8E7F90FF81604DCF90911E05892F83
:1040F000877F93FF886056CF20E074CE442319F069
:104100008272811180CE992309F47FCE85E321113B
:1041100002C090E089E290933E040E94BB0858CB15
:1041200020E0EECF89E277CE82E008375CE7150722
:1041300009F040CD0E94F50243E062E081E00E9478
:104140009E0392CB81E0F1CD0B355CE71507C1F002
:104150000C351C4709F08DCD80911E0582FB882708
:1041600080F991E089270E941E0D83CD6FEF7FEFCC
:1041700080E090E00E943C360E94C21081E0F3CFC4
:1041800080E0F1CFF7018581C080D180882369F07C
:10419000C6010E948C0E182F682FC6010E9468036A
:1041A000B601812F0E945E0E6BCDC6010E94830373
:1041B000182FF6CFB12FBF70DB2E103118F0D2942C
:1041C00090EFD922BB2019F1DD2059F080E2800F59
:1041D000883010F0011115C08D2D0E94E5030E945A
:1041E0001D0F802F0E94920FC8010E94D2028823C7
:1041F00009F484C0BB2009F494C2CC2009F45CC04B
:104200007DC0809144048D2980934404E8CF802FA1
:104210000E942310DD2041F380E2800F883010F0EF
:10422000011104C08D2D0E94EB0306C0D094809133
:1042300044048D21809344040E941D0FD5CFE12FAB
:10424000EF70DE2E812F807F803219F0D29480EFC4
:10425000D822002369F0013009F4B0C0BB2009F472
:10426000C4C0CC2009F4BCC0802F0E94920F46C06D
:1042700080911E0582FD12C0BB2049F0DD2029F08F
:104280008D2D0E94E5030E941D0F80E0ABCF80E0E2
:104290000E942310DD2009F4A7CFC4CFBB2009F46E
:1042A00052C0C11022C08D2D0E946F0F80E0912F4F
:1042B0000E94D202882311F1AA2009F42DC2809114
:1042C000450480FD29C2F70115828695869586955D
:1042D0000E94F502C7010E94C51980914504869588
:1042E000869586950E94010317C2F1E0CF1215C092
:1042F000009141048D2D8023D81205C01092200515
:1043000010921F05D9CF0E941C09909340048093FE
:104310003F040D2900934104F1CF809115058230AF
:1043200068F3C812EBCF8D2D0E946F0F8D2D0E9468
:104330009809809143049D2D9823D916F9F28D296F
:1043400080934304DBCFC11019C08D2D0E94800FD4
:104350008D2D0E949809809143049D2D98239111E1
:1043600008C080E0912F0E94D202882339F2DA2C13
:1043700088C1D094D822D0924304F3CF8091150500
:10438000823008F4BBCF21E0C212B8CF8091420442
:104390008D21882309F4B2CF8D2D0E94800F8D2DA1
:1043A0000E949809809143049D2D9823992309F434
:1043B000A5CFD094D822D0924304A0CF80911B05E2
:1043C000BB2039F08C1508F499CF8D2D0E946F0F0A
:1043D0000BCFC81608F008CF8D2D0E94800F04CF98
:1043E0008D2D0E946F0F802F62CFCC2081F08091A5
:1043F000190590911A05093321F0809117059091C4
:1044000018050E94A60C802F0E94231077CF8D2DB7
:104410000E94800F802FA6CF812F8695869583706E
:10442000882361F0813009F0DFCEC8019370B110AC
:1044300002C080E090E00E949508D6CEC80193703B
:10444000B11002C080E090E00E946F08CDCE6B2DCD
:10445000802F0E94EA09C8CE812F8370811135C058
:10446000B11028C0402F429546954770440F440F25
:10447000802F8F70042E01C0880F0A94EAF7202F36
:104480002071222339F02FE030E001C0220F4A953D
:10449000EAF72095312F369536953370323081F01A
:1044A000333061F04091F704313039F0822B8423AE
:1044B0000E94EF020E94620897CE842B822BF8CFD5
:1044C000822B9091F7048927F3CFBB2059F110FF7D
:1044D000F1CF402F429546954770440F440F802FEF
:1044E0008F70042E01C0880F0A94EAF7202F2071E4
:1044F000222339F02FE030E001C0220F4A95EAF77D
:104500002095312F369536953370323089F033301F
:1045100069F04091F804313041F0822B84230E94ED
:10452000F202C8CF823030F2D4CF842B822BF7CF67
:10453000822B9091F8048927F2CF412F4F70D42E0F
:10454000BB2039F0842F0E94F502802F0E946F0F4C
:10455000B1CF802F0E94800F8D2D0E940103AACF22
:10456000DB2C023F79F178F4003FC1F0013F09F400
:1045700040C0BB2009F4BBC0CC2009F4B5C0802FDB
:104580000E94920F97CF033F21F1043F71F1B110C8
:10459000F3CFC110B5C0812F8F71DFCF80911B0584
:1045A000BB2061F0C81608F085CF212F2F7181E064
:1045B00090E001C0880F2A95EAF7BBCF8C1508F46C
:1045C00079CFF3CF812F8F71B110C7CF0E94F50241
:1045D00071CF80E0BB2009F4A2CF81E0912F9F71C1
:1045E00001C0880F9A95EAF79ACF80911E0582FD47
:1045F00006C0812F8F71BB2009F4AFCFE7CF809128
:104600001505823008F45DC0BB2021F1909145046E
:1046100097709430B9F410924504109247041092A8
:104620004604812F8F710E9401030E94620884EF6B
:10463000912F0E94D20281116DC01092200510921C
:104640001F056AC0C81688F763E0812F8F710E942A
:104650008109EBCFC81688F11092450410924704E7
:104660001092460464E0812F8F710E9481090E949C
:10467000620884EF912F0E94D2028823F1F2C110C8
:10468000DCCF40E0D70115966C9115978D919C91E8
:104690000E94DA0E8091160583FF09C080911F05E4
:1046A00090912005029719F4802F0E948410109297
:1046B000200510921F05AD2CFFCD81E00E94C9039B
:1046C000D6CFBB2031F063E0812F8F710E9481092A
:1046D000F1CE81E00E94C90351E05C1508F0EACEFA
:1046E00082E00E94C903E6CE812F8F716FCFCC206C
:1046F00009F451CF8091190590911A05093321F0E1
:1047000080911705909118050E94A60C802F0E9499
:104710002310D0CEC11091CF60E0C7010E94F80EE7
:10472000B3C8C110EBCD23CEA0E0B0E0EAE9F3E2DC
:104730000C949E3580918003803108F049C08091AF
:104740007F03882309F444C0C091310389E0D82E47
:10475000809130038C17E1F1EC2EF12CDC9EE0010E
:104760001124FE01EE5CFC4F84818823B1F191811C
:1047700080917B03981331C0908180917A039813C4
:104780002CC08581811129C00281138180917C0315
:1047900090917D03081B190B60E08AE793E00E946B
:1047A000F80E0E94AF1708171907B8F4809180031C
:1047B0008F70806180938003C85CDC4F88818F702C
:1047C000806188838AE793E00E94C5190E94BF0335
:1047D000CDB7DEB7E7E00C94BA35E7012196C77094
:1047E000B7CFAFE0B0E0E7EFF3E20C9496358C0181
:1047F00086E0F801DE011A9601900D928A95E1F7A4
:10480000D801CC9011967C90119715966C901597C5
:104810001296ED90FC90139714965C908AE7A82E60
:1048200083E0B82E80917E03811118C0552099F045
:10483000662009F4BFC1C8010E94C60E882309F48E
:10484000B9C189E0F801AAE7B3E001900D928A9519
:10485000E1F70E949423FF24F3944BC060E08AE7C1
:1048600093E00E94F80ED0907F0380917C0390919A
:104870007D03DD2009F449C14701881A990A60E0E7
:104880008AE793E00E94F80E0E94AF1788169906F7
:1048900008F0F6C05520F9F2B090800390917B03A8
:1048A000F8018181FFE0FB1508F4A1C0F62C9813F4
:1048B00025C090917A03D8018C9198131FC0209144
:1048C00081033091820317968D919C9128173907A7
:1048D000A9F4611077C08B2D8F7080618093800365
:1048E0008AE793E00E94C51980918003F8018683CE
:1048F000F12C8F2D2F96EFE00C94B235611062C031
:10490000E091310380913003AE2F99E0A81302C0EB
:1049100099E02AC02A2F30E09A9FD0011124AE5C82
:10492000BC4F11964C911197741207C04C91C41250
:1049300004C015964C91411147C1D9011196A77039
:10494000E5CF2E2F30E09E9FF0011124EE5CFC4F4E
:104950004181741206C04081C41203C045814111D7
:10496000C7CFF9013196E7708E13EBCF8A859B850F
:104970000E94B70E292F22952F70903448F02A5F9D
:104980002F702230C8F0C8010E94C519FD2CB1CF8C
:104990009F70223038F0992351F0F80196819031C0
:1049A00030F4A7CF992319F0882309F4A2CF805EB1
:1049B000883008F49ECFE7CF803F08F49ACF815F1C
:1049C0008230F7CF80918003816080938003809153
:1049D000160581FD8DCF8AE793E00E94C51989E015
:1049E000EAE7F3E0DF011D928A95E9F781CF98139A
:1049F00021C090917A03D8018C9198131BC020910B
:104A000081033091820317968D919C9118972817F6
:104A1000390781F461100EC01696BC92C8010E943D
:104A2000C51989E0F801AAE7B3E001900D928A95D3
:104A3000E1F711CFC8010E94C60E882309F4BAC05D
:104A4000662009F4B7C080918003803208F4F9CE63
:104A500080917A0390917B039A838983FC82EB8215
:104A600080917E038D831E82BF828091810390910D
:104A7000820399878887CE0101960E94C519E1CEED
:104A8000D0908003BFE0BD1508F0A5CF552009F4F4
:104A9000E2CE90917B03F801818198131AC0909126
:104AA0007A038081981315C020918103309182038D
:104AB000878190852817390761F461100AC0D68272
:104AC000C8010E94C51989E0D5011D928A95E9F7B0
:104AD000C2CEC8010E94C60E882309F46BC06620AE
:104AE00009F468C080918003803208F4AACE8091D6
:104AF0007A0390917B039A838983FC82EB82809175
:104B00007E038D831E82DF82B0CF6701C81AD90A67
:104B100060E08AE793E00E94F80E0E94AF17C81683
:104B2000D90608F04BC0552009F495CE662009F44B
:104B300041C090917B03F8018181981331C090911D
:104B40007A03808198132CC02091810330918203D5
:104B5000878190852817390719F580917C039091FA
:104B60007D03E81AF90AF8ECEF16F10408F059CFC2
:104B70008091800380FD55CF803108F452CFD80159
:104B800016968C931697982F907F903F09F446CFF6
:104B9000982F907F905F8F70892B16968C933ECFC5
:104BA000C8010E94C60E81114CCE809180038160A5
:104BB00080938003C8010E94C5194DCE89E0F5019C
:104BC00011928A95E9F794CE9091160590FFA0CEA8
:104BD00002CFA2E1B0E0EFEEF5E20C94A1350A8736
:104BE0001B872C873D874E875F87688B798B8A8BE5
:104BF000CE010A960E94F12381112BC089E0FE01AB
:104C00003A96DE01119601900D928A95E1F7209176
:104C10003003409131038E858823D9F030E0C901FB
:104C200001968770992750E084179507E9F099E07D
:104C3000929FD001939FB00D1124AE5CBC4FFE013A
:104C4000319601900D929A95E1F7809330030E947E
:104C5000BF0319E08091310390913003891312C092
:104C60006296E4E00C94BD350E94911010923003DE
:104C70001092310389E0EAE7F3E0DF011D928A95A3
:104C8000E9F7E7CF189FC00111248E5C9C4F0E946A
:104C9000F123882329F38091310390E001968770F6
:104CA000992780933103D6CFEF92FF920F931F93F2
:104CB000CF93DF938091F404E091CA01CDE081119C
:104CC00031C0CDB7DEB7E6E00C94BB35D1E0DE0FE6
:104CD000D093CA01EE2EF12CCE9FF0011124E4579F
:104CE000FB4F84818823E9F087819085892B21F40B
:104CF00081859285019659F4008111812281338149
:104D0000448155816681778180850E94E925CE9D09
:104D1000F001CF9DF00D1124E457FB4F1482109247
:104D20004404ED2F8091F404E81780F21092F4040B
:104D30001092CA01C6CFA4E0B0E0E1EAF6E20C941A
:104D4000943520918B04298317E0912E01E010E027
:104D50008DE0382E94E0492E5524539480918A0496
:104D60009981891308C00E9454260E9455072496F1
:104D7000E1E10C94B0355981452F50E05C834B83C1
:104D8000FA01EE0FFF1FE058FB4F80819181989E42
:104D9000D001999EB00D1124FD01E85BFB4FFA8311
:104DA000E983248121115DC07090F404ECE8F4E003
:104DB00060E070E0812C671508F051C0A384B484D2
:104DC000A981BA81CD90DC904FEF5FEF612C262D49
:104DD00030E07901EE0CFF1CEC0CFD1CD701ED90CE
:104DE000FC90E114F10439F0AE14BF0409F09A010B
:104DF0006394A901ECCF4F3F5407E1F1D80102C001
:104E0000AA0FBB1F4A95E2F78A2AA801062C02C006
:104E1000440F551F0A94E2F79A0121503109482D99
:104E200050E02417350729F5369EF001379EF00D26
:104E30001124E457FB4F989ED001999EB00D112488
:104E4000A85BBB4F12962D913C9113973087278317
:104E50004482108211829287818715965C920E940B
:104E600066078B819C8101969A83898383708983ED
:104E700075CF14826F5F7F4F3D969DCF1092F604E1
:104E80001092F5041092170180918A0480938B048C
:104E90000E9455070E9454260895ACE1B0E0E3E576
:104EA000F7E20C9493354B8B5C8B6D8B7E8B8F8BE9
:104EB000988F882349F080911F05909120050196D5
:104EC0009093200580931F05588C51101092440434
:104ED000188A198A1A8A86E0FE017396DE011A96EC
:104EE00001900D928A95E1F780911E0582FF21C005
:104EF0008091FB049091FC04892BD9F00E941C093D
:104F00002091460430914704821B930B2091FB04AF
:104F10003091FC048217930738F08091450482FD9C
:104F200003C082E00E94C9030E94280981110E94E7
:104F3000F3038E85882379F061E0CE010A960E9402
:104F4000F80E5C0180352CE7920789F4552011F1A9
:104F500081E0809317010A851B852C853D854E8550
:104F60005F85688979898A890E94E925C8C0813569
:104F70003CE7930729F4552069F00E943E27EBCFC8
:104F800082359C4739F4552029F080911701811111
:104F9000F4CFDECF88E4E82E84E0F82E412C812C7B
:104FA000912C66246394712CD7014D915C91CC2493
:104FB000CA94DD24DA9420E0822F90E0FC01EE0F09
:104FC000FF1FE40FF51F608171816115710539F0D4
:104FD000A616B70609F0C6012F5F6C01EDCFBFEF33
:104FE000CB16DB0609F473C1F70154813581468184
:104FF000511104C180911701882309F411C1552072
:1050000009F40EC100910F0510911005311114C063
:1050100081E090E00C2C01C0880F0A94EAF7482B3D
:10502000468380918804909189048017910720F429
:105030001093890400938804A30102C0440F551FF4
:105040002A95E2F79A0121503109D70116968C91E1
:1050500090E02817390781F48091F5049091F604C7
:10506000009709F450C00E94290B0817190708F08F
:105070004AC081E0F7018483852D482ABFEF8B1A4F
:105080009B0AE7E0EE0EF11CF8E08F16910409F0A0
:105090008BCF552009F42FC1442009F41AC10E9476
:1050A0001C099093F6048093F5048091F4048830F1
:1050B00030F591E0980F9093F40499E0FE013A9650
:1050C000DE01119601900D929A95E1F72DE0829FF5
:1050D000C001112484579B4F29E0FE013196DC0169
:1050E00001900D922A95E1F72FEF3FEFDC011A9620
:1050F0003C932E9319971C96BC92AE921B976C967C
:10510000E2E10C94AF3520918B0480918A04922FB8
:10511000E0E0F0E06701281314C090938B04EE15D3
:10512000FF0509F4A9CF90E0FC01EE0FFF1FE05846
:10513000FB4F9182808201968370992780938A0425
:105140009BCF022F10E0F801EE0FFF1FE058FB4F3E
:1051500060817181F7E0F69FD001F79FB00D1124B7
:10516000A85BBB4F4D915C9111975C8F4B8F50E0CA
:1051700030E040E0E42FF0E0EE0FFF1F6B8D7C8D00
:10518000E60FF71F2080318021143104E1F0F70190
:105190000190F081E02DFA8FE98F30E005C02616EE
:1051A000370609F4552D3F5FE32FF0E0EE0FFF1FA8
:1051B000698D7A8DE60FF71F608171816115710528
:1051C00071F74F5FD7CF5523B1F0F601341708F0D0
:1051D000FD0131E03483EE15FF0509F49ECF9213F3
:1051E00005C0EA17FB0711F49F5F937098012F5FCA
:1051F0003F4F237090CFE0E0F0E0F8CF50E0311166
:105200002FC0B30102C0660F771F2A95E2F7CB01CA
:1052100001974817590799F4C4010E9466070FC007
:1052200050E031111DC0D30102C0AA0FBB1F2A9547
:10523000E2F79D01215031092417350709F080E07C
:10524000F30102C0EE0FFF1FCA94E2F76F01C09492
:10525000D70116969C9116979C2116969C930DCF7C
:10526000CA010C2C02C0959587950A94E2F79A0121
:105270002150310924233523232B39F580FF25C004
:10528000F70182819381892BD9F087E0FE01319665
:10529000DF011D928A95E9F70E941C099C018B830E
:1052A0009C8384E08D83F70192818381792F988795
:1052B000898709811A8144E05E816F810E94E92516
:1052C000D70115961C9281E0BBCF8170B9CF80E0E9
:1052D000D4CE90918A0480918B04981309C00E94C7
:1052E00054261092F6041092F5040E94550733CE0E
:1052F0000E949B2630CE90918B0480918A0498174F
:1053000029F00E949B264110FACE25CE0E945426F9
:105310001092F6041092F5040E945507F4CFA6E00F
:10532000B0E0E5E9F9E20C94A1350E941C098C017A
:1053300080910403909105038017910779F01982F9
:105340001A820E941C09BC0149815A8180E090E0C8
:105350000E944D2710930503009304032696E4E072
:105360000C94BD35A6E0B0E0E8EBF9E20C94A3356F
:105370009093010380930003811520E2920730F49B
:105380000E94FD0F2696E2E00C94BF3580EF8983E2
:105390008A830E941C098160BC0149815A8181E095
:1053A00091E00E944D27EECFA6E0B0E0EAEDF9E2F1
:1053B0000C94A3359093010380930003811520E2A0
:1053C000920730F40E9456102696E2E00C94BF3506
:1053D00080EF89838A830E941C098160BC01498116
:1053E0005A8181E090E00E944D27EECFCF93DF936A
:1053F000D82FC92F0E94B2298091170590911805C6
:105400000E94A60C8D2F9C2F0E94D429DF91CF9152
:1054100008950F931F93CF93DF938C01862F65E937
:1054200073E00E949A17892BB1F4C0919503D09133
:105430009603209781F0F8018281833051F4CE01E8
:105440000E94F629CE010E94F629CE010E94F6297B
:1054500002C08430D0F7DF91CF911F910F91089552
:105460000F931F93CF93DF938C01EB0165E973E0FA
:105470008C2F0E949A17892B09F05AC0FE01FF2732
:10548000D80112968C911297EA53FD4F8130A9F4FE
:1054900015968C9182FD51C080FF4FC082E08083C1
:1054A00080919703909198030097B9F480919503A8
:1054B000909196030097E1F110C08230B9F51596EE
:1054C0008C9182FD28C080FD0BC083E08083809199
:1054D000990390919A03009701F10E94B22928C084
:1054E00084E0808380919B0390919C030097A9F7AF
:1054F0008091950390919603009711F10E94F629EF
:105500008091970390919803009739F780919503C4
:1055100090919603E2CF85E08083809195039091EE
:105520009603009729F00E94F629F0CF86E0808349
:10553000DF91CF911F910F91089581E08083B6CFC5
:105540008091970390919803B5CF0F931F93CF93BA
:10555000DF938C01EB0165E973E08C2F0E949A17B1
:10556000892BA1F480911705909118050E94A60C33
:10557000DD27CA53DD4F8881F801128218828330FB
:10558000F1F048F4813059F0823081F0DF91CF9111
:105590001F910F9108958430B9F08530B9F780914B
:1055A000950390919603009789F306C08091970325
:1055B00090919803009799F30E94D429E7CF8091A6
:1055C000990390919A03F6CF80919B0390919C034D
:1055D000009791F72091950330919603809197035E
:1055E0009091980321153105F1F2009729F7C9012F
:1055F000E3CFCDB7DEB7EA970FB6F894DEBF0FBEA4
:10560000CDBF85B7806885BF85B7806885BF84B703
:10561000877F84BF0FB6F894A89580916000886159
:1056200080936000109260000FBE80E890E00FB69B
:10563000F89480936100909361000FBE8AE096E039
:1056400090938301809382010E9432060E94CF16BC
:105650000E9413170E94D20D0E94F50B0E944B0C62
:105660008091E20084608093E20078948091FF0250
:10567000882399F08091E9001091EC00179511278B
:1056800017958F70182B1092E9008091E80083FD28
:105690000E94B8111F701093E90082E084BD93E06E
:1056A00095BD9AEF97BD80936E000E94040F811103
:1056B00002C00E94BF16E8EEF2E088E0DF011D9212
:1056C0008A95E9F782E08093E70260E080E00E943B
:1056D000EF0661E080E00E94EF0660E081E00E945A
:1056E000EF0661E081E00E94EF06EFE8F1E031971C
:1056F000F1F700C0000010E08091E702181708F4ED
:10570000B8C086E60E940C0687E90E940C0686EC6B
:105710000E940C0684E30E940C0685E30E940C069E
:1057200086E30E940C0682E30E940C0683E0EAEF07
:10573000F2E0DF01282F1D922A95E9F7EEECF2E066
:10574000DF011D928A95E9F780E090E00E9408361B
:10575000853E9E4F21F40E94040F811163C065EEC7
:105760007EEF80E090E00E943C3660E082E090E0D6
:105770000E941E3681E08093F70461E083E090E0B0
:105780000E941E3660E074E184E090E00E943C36A6
:1057900060E086E090E00E941E3660E087E090E0E6
:1057A0000E941E3640E050E0BA0188E090E00E947E
:1057B000303660E083E290E00E941E3660E08CE0CC
:1057C00090E00E941E3660E08DE090E00E941E3660
:1057D00019821A821B821C821D821E821F821886D9
:1057E00048E050E067E170E0CE0101960E940E367D
:1057F00040E050E0BA018FE190E00E94303680E056
:105800000E94980D0E94BF1640E050E0BA018FE060
:1058100090E00E94303640E050E0BA0183E190E031
:105820000E94303682E090E00E9400368093D302DE
:1058300084E090E00E94083690931E0580931D0539
:105840000E946118EFEFF6E721E0E150F0402040C0
:10585000E1F700C000000E9461188091FA0280FF09
:105860001AC06FEF7FEF80E090E00E943C360E940C
:10587000380B60E0812F0E941207082F61E0812F12
:105880000E941207E12FF0E0EB51FD4F880F802BB3
:1058900080831F5F31CF83E090E00E9400360E943A
:1058A000EF0284E091E09093270380932603A8E120
:1058B0004A2E512C33243394222423948091FF02C6
:1058C000853049F48091FF02853009F4DBC00E94E5
:1058D00091100E9462080E9461189091D4028091F8
:1058E000FA0298131FC19091D5028091FB02981380
:1058F00019C19091D6028091FC02981313C10E94A5
:105900008F298091A4039091A503892B09F43EC0AF
:105910004091DF025091E0026091E1027091E20259
:105920002FB7F8948091D7029091D802A091D90214
:10593000B091DA022FBF841B950BA60BB70B4091D9
:10594000DB025091DC026091DD027091DE0284176F
:105950009507A607B707D0F08091A4039091A503FF
:105960000E94FD0F1092A5031092A4031092DF0273
:105970001092E0021092E1021092E2021092DB0219
:105980001092DC021092DD021092DE02E090AC0375
:10599000F090AD03E114F10409F18091AE03909110
:1059A000AF030E94290B8C01C7010E94AF1780171B
:1059B0009107A0F48091AC039091AD039927E4E0A6
:1059C000880F991FEA95E1F7FC01EB54FC4F208109
:1059D00022FD04C080559C4F0E944A1580911701FA
:1059E000882301F18091F5049091F6040097D1F09D
:1059F0000E94290B209188043091890428173907C7
:105A000088F490918B0480918A04981709F4C5C09A
:105A10000E949B2610928904109288041092F6042A
:105A20001092F5048091140580FF1CC0809116012E
:105A300082FF18C00E941C09BC0180913004909123
:105A400031049B01281B390B80910E0190910F01AD
:105A50002817390738F041E08091320490913304DF
:105A60000E949B148091F002882351F08091EA02F9
:105A70001092F0028093EB028091E8028093E90299
:105A800000E0E3C08091FF02843011F11092D10256
:105A900030E40FB6F894A895409260000FBE3093A2
:105AA000600083B7817F846083BF83B7816083BFD9
:105AB0007894889583B78E7F83BF0FB6F894A895A6
:105AC00080916000886180936000109260000FBE3A
:105AD0008091D202882309F4F5CE0E94611880914A
